{
  "contractName": "CropMarket",
  "abi": [
    {
      "constant": true,
      "inputs": [
        {
          "name": "",
          "type": "uint256"
        }
      ],
      "name": "users",
      "outputs": [
        {
          "name": "quantity",
          "type": "uint256"
        }
      ],
      "payable": false,
      "stateMutability": "view",
      "type": "function",
      "signature": "0x365b98b2"
    },
    {
      "constant": true,
      "inputs": [
        {
          "name": "",
          "type": "uint256"
        }
      ],
      "name": "trasanctions",
      "outputs": [
        {
          "name": "cropId",
          "type": "uint256"
        },
        {
          "name": "user",
          "type": "address"
        },
        {
          "name": "quantity",
          "type": "uint256"
        }
      ],
      "payable": false,
      "stateMutability": "view",
      "type": "function",
      "signature": "0x508b7bca"
    },
    {
      "constant": true,
      "inputs": [],
      "name": "userId",
      "outputs": [
        {
          "name": "",
          "type": "uint256"
        }
      ],
      "payable": false,
      "stateMutability": "view",
      "type": "function",
      "signature": "0x58975919"
    },
    {
      "constant": true,
      "inputs": [
        {
          "name": "",
          "type": "uint256"
        }
      ],
      "name": "crops",
      "outputs": [
        {
          "name": "owner",
          "type": "address"
        },
        {
          "name": "quantity",
          "type": "uint256"
        },
        {
          "name": "price",
          "type": "uint256"
        },
        {
          "name": "cropId",
          "type": "uint256"
        }
      ],
      "payable": false,
      "stateMutability": "view",
      "type": "function",
      "signature": "0x70c9f1a5"
    },
    {
      "constant": true,
      "inputs": [],
      "name": "transactionId",
      "outputs": [
        {
          "name": "",
          "type": "uint256"
        }
      ],
      "payable": false,
      "stateMutability": "view",
      "type": "function",
      "signature": "0x7e2f42e7"
    },
    {
      "constant": true,
      "inputs": [],
      "name": "cropCount",
      "outputs": [
        {
          "name": "",
          "type": "uint256"
        }
      ],
      "payable": false,
      "stateMutability": "view",
      "type": "function",
      "signature": "0xdfd55a2c"
    },
    {
      "anonymous": false,
      "inputs": [
        {
          "indexed": true,
          "name": "cropId",
          "type": "uint256"
        }
      ],
      "name": "NewCrop",
      "type": "event",
      "signature": "0xece8c15445ff7b8afa8d57c57726d129c789e077126dd960f4562ab9a3e4c366"
    },
    {
      "anonymous": false,
      "inputs": [
        {
          "indexed": false,
          "name": "cropId",
          "type": "uint256"
        },
        {
          "indexed": false,
          "name": "transactionId",
          "type": "uint256"
        }
      ],
      "name": "NewTransaction",
      "type": "event",
      "signature": "0xff55ed3ce151358eca857f39a3a8e3c5178eaeed3a365eb97193576a83399cd4"
    },
    {
      "constant": false,
      "inputs": [
        {
          "name": "quantity",
          "type": "uint256"
        },
        {
          "name": "price",
          "type": "uint256"
        }
      ],
      "name": "releaseStock",
      "outputs": [],
      "payable": false,
      "stateMutability": "nonpayable",
      "type": "function",
      "signature": "0x9d363396"
    },
    {
      "constant": false,
      "inputs": [
        {
          "name": "cropid",
          "type": "uint256"
        },
        {
          "name": "quantity",
          "type": "uint256"
        }
      ],
      "name": "purchaseStock",
      "outputs": [],
      "payable": true,
      "stateMutability": "payable",
      "type": "function",
      "signature": "0xd53ffbcf"
    }
  ],
  "bytecode": "0x60806040526000805534801561001457600080fd5b5061079f806100246000396000f3fe60806040526004361061008e576000357c0100000000000000000000000000000000000000000000000000000000900463ffffffff168063365b98b214610093578063508b7bca146100e2578063589759191461016b57806370c9f1a5146101965780637e2f42e7146102265780639d36339614610251578063d53ffbcf14610296578063dfd55a2c146102ce575b600080fd5b34801561009f57600080fd5b506100cc600480360360208110156100b657600080fd5b81019080803590602001909291905050506102f9565b6040518082815260200191505060405180910390f35b3480156100ee57600080fd5b5061011b6004803603602081101561010557600080fd5b8101908080359060200190929190505050610317565b604051808481526020018373ffffffffffffffffffffffffffffffffffffffff1673ffffffffffffffffffffffffffffffffffffffff168152602001828152602001935050505060405180910390f35b34801561017757600080fd5b50610180610361565b6040518082815260200191505060405180910390f35b3480156101a257600080fd5b506101cf600480360360208110156101b957600080fd5b8101908080359060200190929190505050610367565b604051808573ffffffffffffffffffffffffffffffffffffffff1673ffffffffffffffffffffffffffffffffffffffff16815260200184815260200183815260200182815260200194505050505060405180910390f35b34801561023257600080fd5b5061023b6103b7565b6040518082815260200191505060405180910390f35b34801561025d57600080fd5b506102946004803603604081101561027457600080fd5b8101908080359060200190929190803590602001909291905050506103bd565b005b6102cc600480360360408110156102ac57600080fd5b8101908080359060200190929190803590602001909291905050506104b7565b005b3480156102da57600080fd5b506102e3610603565b6040518082815260200191505060405180910390f35b60056020528060005260406000206000915090508060000154905081565b60036020528060005260406000206000915090508060000154908060010160009054906101000a900473ffffffffffffffffffffffffffffffffffffffff16908060020154905083565b60045481565b60016020528060005260406000206000915090508060000160009054906101000a900473ffffffffffffffffffffffffffffffffffffffff16908060010154908060020154908060030154905084565b60025481565b60008081548092919060010191905055506080604051908101604052803373ffffffffffffffffffffffffffffffffffffffff168152602001838152602001828152602001600054815250600160008054815260200190815260200160002060008201518160000160006101000a81548173ffffffffffffffffffffffffffffffffffffffff021916908373ffffffffffffffffffffffffffffffffffffffff1602179055506020820151816001015560408201518160020155606082015181600301559050506000547fece8c15445ff7b8afa8d57c57726d129c789e077126dd960f4562ab9a3e4c36660405160405180910390a25050565b6000600160008481526020019081526020016000209050806001015482101515610549576040517f08c379a00000000000000000000000000000000000000000000000000000000081526004018080602001828103825260138152602001807f4e6f7420656e6f756768207175616e746974790000000000000000000000000081525060200191505060405180910390fd5b81816002015402341415156105c6576040517f08c379a00000000000000000000000000000000000000000000000000000000081526004018080602001828103825260128152602001807f4e6f7420656e6f7567682062616c616e6365000000000000000000000000000081525060200191505060405180910390fd5b6105f48160000160009054906101000a900473ffffffffffffffffffffffffffffffffffffffff1634610609565b6105fe8383610654565b505050565b60005481565b8173ffffffffffffffffffffffffffffffffffffffff166108fc829081150290604051600060405180830381858888f1935050505015801561064f573d6000803e3d6000fd5b505050565b6060604051908101604052808381526020013373ffffffffffffffffffffffffffffffffffffffff168152602001828152506003600060025481526020019081526020016000206000820151816000015560208201518160010160006101000a81548173ffffffffffffffffffffffffffffffffffffffff021916908373ffffffffffffffffffffffffffffffffffffffff1602179055506040820151816002015590505060006001600084815260200190815260200160002090508181600101540381600101819055507fff55ed3ce151358eca857f39a3a8e3c5178eaeed3a365eb97193576a83399cd4836002600081548092919060010191905055604051808381526020018281526020019250505060405180910390a150505056fea165627a7a72305820affdda0bf6c5801e461360d7751d7822202b2493b23e58224949365611ac3c560029",
  "source": "pragma solidity ^0.5.0;\n\n\ncontract CropMarket {\n    uint public cropCount = 0;\n    struct Crop{\n        address owner;\n        uint256 quantity;\n        uint256 price;\n        uint256 cropId;\n    }\n    \n    mapping(uint256 => Crop) public crops;\n    \n    struct Transaction{\n        uint256 cropId;\n        address user;\n        uint256 quantity;\n    }\n    \n    uint256 public transactionId;\n    mapping(uint256 => Transaction) public trasanctions;\n    \n    struct User{\n        uint256 quantity;\n        \n        \n    }\n    \n    uint256 public userId;\n    mapping(uint256 => User) public users;\n    \n    event NewCrop(\n        uint256 indexed cropId\n    );\n    \n    event NewTransaction(\n        uint256 cropId,\n        uint256 transactionId\n    );\n    \n    function releaseStock(uint256 quantity, uint256 price) public {\n        cropCount++;\n        crops[cropCount] = Crop(msg.sender,quantity, price,cropCount);\n        emit NewCrop(cropCount);\n    }\n    \n    function purchaseStock(uint256 cropid, uint256 quantity) public payable{\n        Crop storage crop = crops[cropid];\n        require(\n            quantity < crop.quantity,\n            \"Not enough quantity\"\n        );\n        \n        require(\n            msg.value==crop.price*quantity,\n            \"Not enough balance\"\n        );\n        \n        _sendFunds(crop.owner, msg.value);\n        refilStock(cropid, quantity);\n    }\n    \n    function refilStock(uint256 cropid, uint256 quantity) internal {\n        trasanctions[transactionId] = Transaction(cropid,msg.sender,quantity);\n        Crop storage crop = crops[cropid];\n        crop.quantity = crop.quantity - quantity;\n        emit NewTransaction(cropid, transactionId++);\n    }\n    \n    function _sendFunds(address rec, uint256 value) internal{\n        address(uint160(rec)).transfer(value);\n    }\n}\n",
  "sourcePath": "/home/yash/Documents/GitHub/starter_kit/src/contracts/CropMarket.sol",
  "compiler": {
    "name": "solc",
    "version": "0.5.0+commit.1d4f565a.Emscripten.clang"
  },
  "schemaVersion": "3.0.2",
  "updatedAt": "2019-12-21T21:44:00.170Z",
  "devdoc": {
    "methods": {}
  },
  "userdoc": {
    "methods": {}
  }
}