{
  "contractName": "CropMarket",
  "abi": [
    {
      "constant": true,
      "inputs": [
        {
          "name": "",
          "type": "uint256"
        }
      ],
      "name": "trasanctions",
      "outputs": [
        {
          "name": "cropId",
          "type": "uint256"
        },
        {
          "name": "user",
          "type": "address"
        },
        {
          "name": "quantity",
          "type": "uint256"
        }
      ],
      "payable": false,
      "stateMutability": "view",
      "type": "function",
      "signature": "0x508b7bca"
    },
    {
      "constant": true,
      "inputs": [
        {
          "name": "",
          "type": "uint256"
        }
      ],
      "name": "crops",
      "outputs": [
        {
          "name": "owner",
          "type": "address"
        },
        {
          "name": "quantity",
          "type": "uint256"
        },
        {
          "name": "price",
          "type": "uint256"
        },
        {
          "name": "cropId",
          "type": "uint256"
        }
      ],
      "payable": false,
      "stateMutability": "view",
      "type": "function",
      "signature": "0x70c9f1a5"
    },
    {
      "constant": true,
      "inputs": [],
      "name": "transactionId",
      "outputs": [
        {
          "name": "",
          "type": "uint256"
        }
      ],
      "payable": false,
      "stateMutability": "view",
      "type": "function",
      "signature": "0x7e2f42e7"
    },
    {
      "constant": true,
      "inputs": [],
      "name": "cropCount",
      "outputs": [
        {
          "name": "",
          "type": "uint256"
        }
      ],
      "payable": false,
      "stateMutability": "view",
      "type": "function",
      "signature": "0xdfd55a2c"
    },
    {
      "anonymous": false,
      "inputs": [
        {
          "indexed": true,
          "name": "cropId",
          "type": "uint256"
        }
      ],
      "name": "NewCrop",
      "type": "event",
      "signature": "0xece8c15445ff7b8afa8d57c57726d129c789e077126dd960f4562ab9a3e4c366"
    },
    {
      "anonymous": false,
      "inputs": [
        {
          "indexed": false,
          "name": "cropId",
          "type": "uint256"
        },
        {
          "indexed": false,
          "name": "transactionId",
          "type": "uint256"
        }
      ],
      "name": "NewTransaction",
      "type": "event",
      "signature": "0xff55ed3ce151358eca857f39a3a8e3c5178eaeed3a365eb97193576a83399cd4"
    },
    {
      "constant": false,
      "inputs": [
        {
          "name": "quantity",
          "type": "uint256"
        },
        {
          "name": "price",
          "type": "uint256"
        }
      ],
      "name": "releaseStock",
      "outputs": [],
      "payable": false,
      "stateMutability": "nonpayable",
      "type": "function",
      "signature": "0x9d363396"
    },
    {
      "constant": false,
      "inputs": [
        {
          "name": "cropid",
          "type": "uint256"
        },
        {
          "name": "quantity",
          "type": "uint256"
        }
      ],
      "name": "purchaseStock",
      "outputs": [],
      "payable": true,
      "stateMutability": "payable",
      "type": "function",
      "signature": "0xd53ffbcf"
    }
  ],
  "bytecode": "0x60806040526000805534801561001457600080fd5b50610540806100246000396000f3fe608060405260043610610078576000357c0100000000000000000000000000000000000000000000000000000000900463ffffffff168063508b7bca1461007d57806370c9f1a5146101065780637e2f42e7146101965780639d363396146101c1578063d53ffbcf14610206578063dfd55a2c1461023e575b600080fd5b34801561008957600080fd5b506100b6600480360360208110156100a057600080fd5b8101908080359060200190929190505050610269565b604051808481526020018373ffffffffffffffffffffffffffffffffffffffff1673ffffffffffffffffffffffffffffffffffffffff168152602001828152602001935050505060405180910390f35b34801561011257600080fd5b5061013f6004803603602081101561012957600080fd5b81019080803590602001909291905050506102b3565b604051808573ffffffffffffffffffffffffffffffffffffffff1673ffffffffffffffffffffffffffffffffffffffff16815260200184815260200183815260200182815260200194505050505060405180910390f35b3480156101a257600080fd5b506101ab610303565b6040518082815260200191505060405180910390f35b3480156101cd57600080fd5b50610204600480360360408110156101e457600080fd5b810190808035906020019092919080359060200190929190505050610309565b005b61023c6004803603604081101561021c57600080fd5b810190808035906020019092919080359060200190929190505050610403565b005b34801561024a57600080fd5b50610253610494565b6040518082815260200191505060405180910390f35b60036020528060005260406000206000915090508060000154908060010160009054906101000a900473ffffffffffffffffffffffffffffffffffffffff16908060020154905083565b60016020528060005260406000206000915090508060000160009054906101000a900473ffffffffffffffffffffffffffffffffffffffff16908060010154908060020154908060030154905084565b60025481565b60008081548092919060010191905055506080604051908101604052803373ffffffffffffffffffffffffffffffffffffffff168152602001838152602001828152602001600054815250600160008054815260200190815260200160002060008201518160000160006101000a81548173ffffffffffffffffffffffffffffffffffffffff021916908373ffffffffffffffffffffffffffffffffffffffff1602179055506020820151816001015560408201518160020155606082015181600301559050506000547fece8c15445ff7b8afa8d57c57726d129c789e077126dd960f4562ab9a3e4c36660405160405180910390a25050565b60006001600084815260200190815260200160002090508060000160009054906101000a900473ffffffffffffffffffffffffffffffffffffffff1673ffffffffffffffffffffffffffffffffffffffff166108fc349081150290604051600060405180830381858888f19350505050158015610484573d6000803e3d6000fd5b5061048f838361049a565b505050565b60005481565b60006001600084815260200190815260200160002090508181600101540381600101819055507fff55ed3ce151358eca857f39a3a8e3c5178eaeed3a365eb97193576a83399cd4836002600081548092919060010191905055604051808381526020018281526020019250505060405180910390a150505056fea165627a7a7230582025e31760f7a9ee3b5eea6192b42d19f6215f47722987b31f0209741ca605f4df0029",
  "source": "pragma solidity ^0.5.0;\n\n\ncontract CropMarket {\n    uint public cropCount = 0;\n    struct Crop{\n        address payable owner;\n        uint256 quantity;\n        uint256 price;\n        uint256 cropId;\n    }\n    \n    mapping(uint256 => Crop) public crops;\n    \n    struct Transaction{\n        uint256 cropId;\n        address user;\n        uint256 quantity;\n    }\n    \n    uint256 public transactionId;\n    mapping(uint256 => Transaction) public trasanctions;\n    \n    event NewCrop(\n        uint256 indexed cropId\n    );\n    \n    event NewTransaction(\n        uint256 cropId,\n        uint256 transactionId\n    );\n    \n    function releaseStock(uint256 quantity, uint256 price) public {\n        cropCount++;\n        crops[cropCount] = Crop(msg.sender,quantity, price,cropCount);\n        emit NewCrop(cropCount);\n    }\n    \n    function purchaseStock(uint256 cropid, uint256 quantity) public payable{\n        Crop storage crop = crops[cropid];\n        // require(\n        //     quantity <= crop.quantity,\n        //     \"Not enough quantity\"\n        // );\n        \n        // require(\n        //     msg.value==crop.price*quantity,\n        //     \"Not enough balance\"\n        // );\n        \n        address(crop.owner).transfer(msg.value);\n        refilStock(cropid, quantity);\n    }\n    \n    function refilStock(uint256 cropid, uint256 quantity) internal {\n        // trasanctions[transactionId] = Transaction(cropid,msg.sender,quantity);\n        Crop storage crop = crops[cropid];\n        crop.quantity = crop.quantity - quantity;\n        emit NewTransaction(cropid, transactionId++);\n    }\n}\n",
  "sourcePath": "/home/yash/Documents/GitHub/starter_kit/src/contracts/CropMarket.sol",
  "compiler": {
    "name": "solc",
    "version": "0.5.0+commit.1d4f565a.Emscripten.clang"
  },
  "schemaVersion": "3.0.2",
  "updatedAt": "2019-12-22T02:11:37.689Z",
  "devdoc": {
    "methods": {}
  },
  "userdoc": {
    "methods": {}
  }
}